:0C0000000C948A000C9400000C9400008A
:10000C000C9400000C9400000C9400000C94000064
:10001C000C9400000C9400000C9400000C94000054
:10002C000C9400000C9400000C9400000C94000044
:10003C000C9400000C9400000C9400000C94000034
:10004C000C9400000C9400000C9400000C94000024
:10005C000C9400000C9400000C9400000C94000014
:10006C000C9400000C9400000C9400000C94000004
:10007C000C9400000C9400000C9400000C940000F4
:10008C001027E80364000A000100001000011000B2
:10009C000100526561647900746F0053746172746D
:1000AC000058205475726E004F205475726E004FBC
:1000BC002057494E4E45522100582057494E4E4527
:1000CC0052210047616D65204F7665722E0080C00D
:1000DC00060000059E0003000605A40006000905A5
:1000EC00A70007000F05AD0007001605B4000A00B5
:1000FC001D05BB000A002705C5000B003105CF000C
:10010C0002006805DA000000F894EE27ECBBF1E081
:10011C00F5BFE5BFE0936C008DE0A2E0BB27ED934B
:10012C008A95E9F780E090E1A0E0B1E0ED930197CA
:10013C00E9F7ECEDF0E085919591009761F0A591D0
:10014C00B59105901590BF01F00105900D920197A6
:10015C00E1F7FB01F0CFEFEFEDBFE0E1EEBFC0E068
:10016C00D5E00C949D020E942F04EEEFE5BB9F9905
:10017C0009C00E942F049F9902C09F9BFECFE0E014
:10018C00F0E008959E9909C00E942F049E9902C028
:10019C009E9BFECFE1E0F0E008959D9909C00E947E
:1001AC002F049D9902C09D9BFECFE2E0F0E00895E4
:1001BC009C9909C00E942F049C9902C09C9BFECF65
:1001CC00EAE0F0E008950E942F04EDEFE5BB9F9963
:1001DC0009C00E942F049F9902C09F9BFECFE3E0B1
:1001EC00F0E008959E9909C00E942F049E9902C0C8
:1001FC009E9BFECFE4E0F0E008959D9909C00E941B
:10020C002F049D9902C09D9BFECFE5E0F0E0089580
:10021C009C9909C00E942F049C9902C09C9BFECF04
:10022C00EBE0F0E008950E942F04EBEFE5BB9F9903
:10023C0009C00E942F049F9902C09F9BFECFE6E04D
:10024C00F0E008959E9909C00E942F049E9902C067
:10025C009E9BFECFE7E0F0E008959D9909C00E94B7
:10026C002F049D9902C09D9BFECFE8E0F0E008951D
:10027C009C9909C00E942F049C9902C09C9BFECFA4
:10028C00ECE0F0E008950E942F04E7EFE5BB9F99A6
:10029C0009C00E942F049F9902C09F9BFECFE0E1F2
:1002AC00F0E008959E9909C00E942F049E9902C007
:1002BC009E9BFECFEFE0F0E008959D9909C00E944F
:1002CC002F049D9902C09D9BFECFEEE0F0E00895B7
:1002DC009C9909C00E942F049C9902C09C9BFECF44
:1002EC00EDE0F0E008950895BA93AA93A881B9813E
:1002FC00119719F50E94C103E0E0EA93A0E00E9477
:10030C00B003A0E0B5E00E94EF03E7E00E943304E5
:10031C00A6E0B5E00E94EF03EBE0EA93A2E00E94B6
:10032C00B003A9E0B5E00E94EF03EAE0F0E0E415C9
:10033C00F50519F018DF2F01F8CF662477248824EF
:10034C009924AA24BB240E943704CC24DD24E9E0A0
:10035C00F0E0CE16DF0654F40E943D04E0E0F0E03D
:10036C00ED93FC93F60131966F01F1CF0C94BF0322
:10037C000E94C103E0E0F0E0E0936005F0936105BA
:10038C00E0935E05F0935F05A0916405B09165055F
:10039C00119781F4062C072831F4E9E00E9433040C
:1003AC00AFE0B5E005C0E9E00E943304A6E1B5E09A
:1003BC000E94EF03CC24DD24E9E0F0E0CE16DF064A
:1003CC000CF03FC0D601E3E0F0E00E94B40430979B
:1003DC0021F400240C140D0409F40EC0E091600506
:1003EC00F09161053196E0936005F0936105E0E0D2
:1003FC00E0935E05E0935F05E0915E05EA93A091C2
:10040C006005A8D10E943D040E94C204309711F4EB
:10041C00ADE20BC0E130A0E0FA0711F4A8E505C08D
:10042C00EF3FAFEFFA0711F4AFE4B3D1AEE5B5E0AF
:10043C00ED91FD913196FE93EE93F60131966F019D
:10044C00BBCF0895E0913E05F0913F050E94450415
:10045C00E0914005F0914105EA0FFB1FE0934E053A
:10046C00F0934F05A0914205B09143050E944C04B6
:10047C00E0914605F0914705EA0FFB1FE09350050C
:10048C00F0935105A0914805B0914905E0914A05BA
:10049C00F0914B050E945304E0935205F0935305E1
:1004AC00E0914205F09143050E9445040E945C04D2
:1004BC00E0935405F0935505A0913E05B0913F058E
:1004CC000E944C04E0914A05F0914B05EA0FFB1F8A
:1004DC00E0935605F0935705A0914005B091410566
:1004EC00E0914605F09147050E945304E0935805AE
:1004FC00F0935905E0914405F09145050E9445049F
:10050C00E0914C05F0914D05EA0FFB1FE0935A0565
:10051C00F0935B05A0914005B09141050E944C04FD
:10052C000E945C04E0935C05F0935D050895EFE098
:10053C00E4BBE0EFE5BBE7EFE2B9A0E15BD10E94E1
:10054C006304082C092809F0CCC00E946704B1F49C
:10055C00E0E0E0936205E0936305E0916205F091C1
:10056C006305309751F40E94670431F4E1E0F0E048
:10057C00E0936205F0936305F0CF40C0ECE0F0E04F
:10058C00E415F50521F4A0E0B0E0AEDE37C0EDE0F7
:10059C00F0E0E415F50519F40E9463042FC0EEE0B9
:1005AC00F0E0E415F50539F4E1E0F0E0E0936405E2
:1005BC00F093650523C0EFE0F0E0E415F50551F488
:1005CC00062C072819F4EFEFFFEF02C0E1E0F0E092
:1005DC004F0114C0E0E1F0E0E415F50579F4F30106
:1005EC000E949C046E2E7724E0916605F0916705BD
:1005FC000E946F04E0E0F0E0ED93FC93E9E0F0E0A2
:10060C004E165F063CF5F2010E946F040E94C20474
:10061C00309701F54092660550926705F3013097CB
:10062C0031F4F2010E946F04E1E0F0E009C0E13026
:10063C00A0E0FA0739F4F2010E946F04EFEFFFEF2C
:10064C00ED93FC93F50131965F01F3010E949C043C
:10065C006E2E77248DDEF6DECC24DD24E8E0F0E08F
:10066C00CE16DF061CF50E947604E330A0E0FA07F4
:10067C0019F4E1E0F0E008C00E947604ED3FAFEF22
:10068C00FA0719F4EFEFFFEF4F01E9E0F0E0EA159C
:10069C00FB0521F400240814090409F003C0E2E06E
:1006AC00F0E04F01F60131966F01D8CFE4E0EA9308
:1006BC00A3E050D0F401EF3FAFEFFA0719F4ADE12E
:1006CC00B5E00DC0E130A0E0FA0719F4A7E2B5E0FF
:1006DC0006C0E230A0E0FA0719F4A1E3B5E079D046
:1006EC0030CF41DD2F01ECE0F0E0E415F50531F4FD
:1006FC00A0E0B0E0F9DD0E94370423CFEDE0F0E09C
:10070C00E415F50529F40E9463040E94370419CFFF
:10071C00E8CFFFCFAA93E3B1EF70AE2FE881E07F73
:10072C00EA2BE3B98DE08A95F1F71A9A8DE08A9558
:10073C00F1F71A988DE08A95F1F789C0AA93A881F0
:10074C00E9DFE881E295E883A881E4DF85E88A9512
:10075C00F1F77DC0AA93E881F0E0E859FA4FE08107
:10076C00A981AE0FEBDFE981E0936C05E881E093A2
:10077C006D0522960895A2E00E948004ACE0DEDFB5
:10078C00A1E00E948004E0E0E0936D05E0936C052D
:10079C000895AA93A881AA3031F0E0916E05A0913A
:1007AC006C05AE1760F0E0E0EA93A0916D05AF5FC9
:1007BC00A0936D05CFDFA881AA3009F448C0E09161
:1007CC006C05EF5FE0936C05189AA881B7DF189859
:1007DC003EC0BA93AA931A93A981BA81ED91A983C9
:1007EC00BA831E2FE03019F0A12FD3DFF5CF18817B
:1007FC0023960895AA93E2B1E06FE2B9129A109A87
:10080C00119A1A9818981998E881E0936E05E05897
:10081C00E0936A05E881E054E0936B05A4E1B0E055
:10082C000E948E040E9486040E9486040E94860404
:10083C00A0E270DF88EC90E00197F1F7A8E27EDF90
:10084C00A4E07CDFA5E87ADFA6E078DF94DF2196D0
:10085C000895AAE0B0E00C948E04EA93A1E00C9405
:10086C00B003E0E0E0936405E09365050895F601BC
:10087C00ACE3B5E0EE0FFF1FAE0FBF1F0895A091C4
:10088C003C05B0913D05AE0FBF1F0895E0914405A6
:10089C00F0914505AE0FBF1F0895AE0FBF1FE0913D
:1008AC004C05F0914D05EA0FFB1F0895E0914805AA
:1008BC00F0914905EA0FFB1F0895A1E0B0E00C94FC
:1008CC007A010E94B9002F01EBE0F0E0E415F50588
:1008DC000895ACE3B5E0EE0FFF1FAE0FBF1F0895F8
:1008EC00F601AEE4B5E0EE0FFF1FAE0FBF1F0E9486
:1008FC00C20408950E94A403A3E0B0E00C948E04FB
:10090C00A0E30E94900388EC90E00197F1F7089522
:10091C00109639F080ED97E00197F1F7A8951197B3
:10092C00C9F70895F195E195F0400895EF2BE1E0BA
:10093C0009F0E0E008950024112490E1AA0FBB1FF8
:10094C00001C111C0E1A1F0A18F40E0E1F1E01C0DB
:10095C00A1609A9599F7FD01D0010895E894B7FF2D
:10096C0004C0A095B09511966894F7FDDBDFE3DF2A
:10097C00FD010EF4D7DF0895ED91FC9111970895C8
:00000001FF
